{
  "contractName": "SupplyChain",
  "abi": [
    {
      "inputs": [
        {
          "internalType": "uint256",
          "name": "",
          "type": "uint256"
        }
      ],
      "name": "productStatus",
      "outputs": [
        {
          "internalType": "string",
          "name": "pid",
          "type": "string"
        },
        {
          "internalType": "address",
          "name": "staion",
          "type": "address"
        },
        {
          "internalType": "int256",
          "name": "temperature",
          "type": "int256"
        },
        {
          "internalType": "string",
          "name": "details",
          "type": "string"
        },
        {
          "internalType": "uint256",
          "name": "timestamp",
          "type": "uint256"
        }
      ],
      "stateMutability": "view",
      "type": "function",
      "constant": true
    },
    {
      "inputs": [
        {
          "internalType": "uint256",
          "name": "",
          "type": "uint256"
        },
        {
          "internalType": "uint256",
          "name": "",
          "type": "uint256"
        }
      ],
      "name": "product_Status",
      "outputs": [
        {
          "internalType": "string",
          "name": "pid",
          "type": "string"
        },
        {
          "internalType": "address",
          "name": "staion",
          "type": "address"
        },
        {
          "internalType": "int256",
          "name": "temperature",
          "type": "int256"
        },
        {
          "internalType": "string",
          "name": "details",
          "type": "string"
        },
        {
          "internalType": "uint256",
          "name": "timestamp",
          "type": "uint256"
        }
      ],
      "stateMutability": "view",
      "type": "function",
      "constant": true
    },
    {
      "inputs": [
        {
          "internalType": "uint256",
          "name": "",
          "type": "uint256"
        },
        {
          "internalType": "uint256",
          "name": "",
          "type": "uint256"
        }
      ],
      "name": "products",
      "outputs": [
        {
          "internalType": "string",
          "name": "pid",
          "type": "string"
        },
        {
          "internalType": "address",
          "name": "staionAddress",
          "type": "address"
        },
        {
          "internalType": "string",
          "name": "name",
          "type": "string"
        },
        {
          "internalType": "string",
          "name": "lot",
          "type": "string"
        },
        {
          "internalType": "int256",
          "name": "value",
          "type": "int256"
        },
        {
          "internalType": "string",
          "name": "origin",
          "type": "string"
        },
        {
          "internalType": "string",
          "name": "destination",
          "type": "string"
        },
        {
          "internalType": "uint256",
          "name": "timestamp",
          "type": "uint256"
        }
      ],
      "stateMutability": "view",
      "type": "function",
      "constant": true
    },
    {
      "inputs": [
        {
          "internalType": "uint256",
          "name": "",
          "type": "uint256"
        }
      ],
      "name": "products_list",
      "outputs": [
        {
          "internalType": "string",
          "name": "pid",
          "type": "string"
        },
        {
          "internalType": "address",
          "name": "staionAddress",
          "type": "address"
        },
        {
          "internalType": "string",
          "name": "name",
          "type": "string"
        },
        {
          "internalType": "string",
          "name": "lot",
          "type": "string"
        },
        {
          "internalType": "int256",
          "name": "value",
          "type": "int256"
        },
        {
          "internalType": "string",
          "name": "origin",
          "type": "string"
        },
        {
          "internalType": "string",
          "name": "destination",
          "type": "string"
        },
        {
          "internalType": "uint256",
          "name": "timestamp",
          "type": "uint256"
        }
      ],
      "stateMutability": "view",
      "type": "function",
      "constant": true
    },
    {
      "inputs": [
        {
          "internalType": "string",
          "name": "pid",
          "type": "string"
        },
        {
          "internalType": "string",
          "name": "name",
          "type": "string"
        },
        {
          "internalType": "string",
          "name": "lot",
          "type": "string"
        },
        {
          "internalType": "int256",
          "name": "value",
          "type": "int256"
        },
        {
          "internalType": "int256",
          "name": "tem",
          "type": "int256"
        },
        {
          "internalType": "string",
          "name": "origin",
          "type": "string"
        },
        {
          "internalType": "string",
          "name": "destination",
          "type": "string"
        }
      ],
      "name": "addProduct",
      "outputs": [],
      "stateMutability": "payable",
      "type": "function",
      "payable": true
    },
    {
      "inputs": [
        {
          "internalType": "string",
          "name": "pid",
          "type": "string"
        },
        {
          "internalType": "int256",
          "name": "tem",
          "type": "int256"
        },
        {
          "internalType": "string",
          "name": "dt",
          "type": "string"
        }
      ],
      "name": "addStatus",
      "outputs": [],
      "stateMutability": "payable",
      "type": "function",
      "payable": true
    },
    {
      "inputs": [
        {
          "internalType": "uint256",
          "name": "id",
          "type": "uint256"
        }
      ],
      "name": "getProductStatus",
      "outputs": [
        {
          "components": [
            {
              "internalType": "string",
              "name": "pid",
              "type": "string"
            },
            {
              "internalType": "address",
              "name": "staion",
              "type": "address"
            },
            {
              "internalType": "int256",
              "name": "temperature",
              "type": "int256"
            },
            {
              "internalType": "string",
              "name": "details",
              "type": "string"
            },
            {
              "internalType": "uint256",
              "name": "timestamp",
              "type": "uint256"
            }
          ],
          "internalType": "struct SupplyChain.Status[]",
          "name": "",
          "type": "tuple[]"
        }
      ],
      "stateMutability": "view",
      "type": "function",
      "constant": true
    },
    {
      "inputs": [
        {
          "internalType": "uint256",
          "name": "id",
          "type": "uint256"
        }
      ],
      "name": "getProduct",
      "outputs": [
        {
          "components": [
            {
              "internalType": "string",
              "name": "pid",
              "type": "string"
            },
            {
              "internalType": "address",
              "name": "staionAddress",
              "type": "address"
            },
            {
              "internalType": "string",
              "name": "name",
              "type": "string"
            },
            {
              "internalType": "string",
              "name": "lot",
              "type": "string"
            },
            {
              "internalType": "int256",
              "name": "value",
              "type": "int256"
            },
            {
              "internalType": "string",
              "name": "origin",
              "type": "string"
            },
            {
              "internalType": "string",
              "name": "destination",
              "type": "string"
            },
            {
              "internalType": "uint256",
              "name": "timestamp",
              "type": "uint256"
            }
          ],
          "internalType": "struct SupplyChain.Product[]",
          "name": "",
          "type": "tuple[]"
        }
      ],
      "stateMutability": "view",
      "type": "function",
      "constant": true
    },
    {
      "inputs": [],
      "name": "getProductStatusList",
      "outputs": [
        {
          "components": [
            {
              "internalType": "string",
              "name": "pid",
              "type": "string"
            },
            {
              "internalType": "address",
              "name": "staion",
              "type": "address"
            },
            {
              "internalType": "int256",
              "name": "temperature",
              "type": "int256"
            },
            {
              "internalType": "string",
              "name": "details",
              "type": "string"
            },
            {
              "internalType": "uint256",
              "name": "timestamp",
              "type": "uint256"
            }
          ],
          "internalType": "struct SupplyChain.Status[]",
          "name": "",
          "type": "tuple[]"
        }
      ],
      "stateMutability": "view",
      "type": "function",
      "constant": true
    },
    {
      "inputs": [],
      "name": "getProductList",
      "outputs": [
        {
          "components": [
            {
              "internalType": "string",
              "name": "pid",
              "type": "string"
            },
            {
              "internalType": "address",
              "name": "staionAddress",
              "type": "address"
            },
            {
              "internalType": "string",
              "name": "name",
              "type": "string"
            },
            {
              "internalType": "string",
              "name": "lot",
              "type": "string"
            },
            {
              "internalType": "int256",
              "name": "value",
              "type": "int256"
            },
            {
              "internalType": "string",
              "name": "origin",
              "type": "string"
            },
            {
              "internalType": "string",
              "name": "destination",
              "type": "string"
            },
            {
              "internalType": "uint256",
              "name": "timestamp",
              "type": "uint256"
            }
          ],
          "internalType": "struct SupplyChain.Product[]",
          "name": "",
          "type": "tuple[]"
        }
      ],
      "stateMutability": "view",
      "type": "function",
      "constant": true
    }
  ],
  "bytecode": "0x608060405260008055600060015534801561001957600080fd5b50612e0d806100296000396000f3fe6080604052600436106100915760003560e01c80637995dc10116100595780637995dc1014610186578063a590fbdb146101a2578063b9db15b4146101e6578063bd347ed714610223578063f7aed7731461026457610091565b80630ea3d3ee1461009657806313f6b1bb146100d757806334d2c0ad1461011457806353eb4fce1461013f5780635d5df0801461015b575b600080fd5b3480156100a257600080fd5b506100bd60048036038101906100b8919061207a565b6102a8565b6040516100ce9594939291906121a0565b60405180910390f35b3480156100e357600080fd5b506100fe60048036038101906100f9919061207a565b61041e565b60405161010b91906123b7565b60405180910390f35b34801561012057600080fd5b5061012961061e565b6040516101369190612567565b60405180910390f35b610159600480360381019061015491906126ea565b6109c2565b005b34801561016757600080fd5b50610170610c69565b60405161017d91906123b7565b60405180910390f35b6101a0600480360381019061019b9190612775565b610e56565b005b3480156101ae57600080fd5b506101c960048036038101906101c491906128a3565b6114a9565b6040516101dd9897969594939291906128e3565b60405180910390f35b3480156101f257600080fd5b5061020d6004803603810190610208919061207a565b6117d6565b60405161021a9190612567565b60405180910390f35b34801561022f57600080fd5b5061024a600480360381019061024591906128a3565b611b8d565b60405161025b9594939291906121a0565b60405180910390f35b34801561027057600080fd5b5061028b6004803603810190610286919061207a565b611d10565b60405161029f9897969594939291906128e3565b60405180910390f35b600b81815481106102b857600080fd5b90600052602060002090600502016000915090508060000180546102db906129b3565b80601f0160208091040260200160405190810160405280929190818152602001828054610307906129b3565b80156103545780601f1061032957610100808354040283529160200191610354565b820191906000526020600020905b81548152906001019060200180831161033757829003601f168201915b5050505050908060010160009054906101000a900473ffffffffffffffffffffffffffffffffffffffff1690806002015490806003018054610395906129b3565b80601f01602080910402602001604051908101604052809291908181526020018280546103c1906129b3565b801561040e5780601f106103e35761010080835404028352916020019161040e565b820191906000526020600020905b8154815290600101906020018083116103f157829003601f168201915b5050505050908060040154905085565b606060126000838152602001908152602001600020805480602002602001604051908101604052809291908181526020016000905b8282101561061357838290600052602060002090600502016040518060a0016040529081600082018054610486906129b3565b80601f01602080910402602001604051908101604052809291908181526020018280546104b2906129b3565b80156104ff5780601f106104d4576101008083540402835291602001916104ff565b820191906000526020600020905b8154815290600101906020018083116104e257829003601f168201915b505050505081526020016001820160009054906101000a900473ffffffffffffffffffffffffffffffffffffffff1673ffffffffffffffffffffffffffffffffffffffff1673ffffffffffffffffffffffffffffffffffffffff16815260200160028201548152602001600382018054610578906129b3565b80601f01602080910402602001604051908101604052809291908181526020018280546105a4906129b3565b80156105f15780601f106105c6576101008083540402835291602001916105f1565b820191906000526020600020905b8154815290600101906020018083116105d457829003601f168201915b5050505050815260200160048201548152505081526020019060010190610453565b505050509050919050565b60606002805480602002602001604051908101604052809291908181526020016000905b828210156109b9578382906000526020600020906008020160405180610100016040529081600082018054610676906129b3565b80601f01602080910402602001604051908101604052809291908181526020018280546106a2906129b3565b80156106ef5780601f106106c4576101008083540402835291602001916106ef565b820191906000526020600020905b8154815290600101906020018083116106d257829003601f168201915b505050505081526020016001820160009054906101000a900473ffffffffffffffffffffffffffffffffffffffff1673ffffffffffffffffffffffffffffffffffffffff1673ffffffffffffffffffffffffffffffffffffffff16815260200160028201805461075e906129b3565b80601f016020809104026020016040519081016040528092919081815260200182805461078a906129b3565b80156107d75780601f106107ac576101008083540402835291602001916107d7565b820191906000526020600020905b8154815290600101906020018083116107ba57829003601f168201915b505050505081526020016003820180546107f0906129b3565b80601f016020809104026020016040519081016040528092919081815260200182805461081c906129b3565b80156108695780601f1061083e57610100808354040283529160200191610869565b820191906000526020600020905b81548152906001019060200180831161084c57829003601f168201915b505050505081526020016004820154815260200160058201805461088c906129b3565b80601f01602080910402602001604051908101604052809291908181526020018280546108b8906129b3565b80156109055780601f106108da57610100808354040283529160200191610905565b820191906000526020600020905b8154815290600101906020018083116108e857829003601f168201915b5050505050815260200160068201805461091e906129b3565b80601f016020809104026020016040519081016040528092919081815260200182805461094a906129b3565b80156109975780601f1061096c57610100808354040283529160200191610997565b820191906000526020600020905b81548152906001019060200180831161097a57829003601f168201915b5050505050815260200160078201548152505081526020019060010190610642565b50505050905090565b60003390506040518060a001604052808581526020018273ffffffffffffffffffffffffffffffffffffffff16815260200184815260200183815260200142815250600c6000820151816000019081610a1b9190612b90565b5060208201518160010160006101000a81548173ffffffffffffffffffffffffffffffffffffffff021916908373ffffffffffffffffffffffffffffffffffffffff160217905550604082015181600201556060820151816003019081610a829190612b90565b5060808201518160040155905050601260006001548152602001908152602001600020600c908060018154018082558091505060019003906000526020600020906005020160009091909190915060008201816000019081610ae49190612c78565b506001820160009054906101000a900473ffffffffffffffffffffffffffffffffffffffff168160010160006101000a81548173ffffffffffffffffffffffffffffffffffffffff021916908373ffffffffffffffffffffffffffffffffffffffff1602179055506002820154816002015560038201816003019081610b6a9190612c78565b50600482015481600401555050600b600c908060018154018082558091505060019003906000526020600020906005020160009091909190915060008201816000019081610bb89190612c78565b506001820160009054906101000a900473ffffffffffffffffffffffffffffffffffffffff168160010160006101000a81548173ffffffffffffffffffffffffffffffffffffffff021916908373ffffffffffffffffffffffffffffffffffffffff1602179055506002820154816002015560038201816003019081610c3e9190612c78565b5060048201548160040155505060016000815480929190610c5e90612d8f565b919050555050505050565b6060600b805480602002602001604051908101604052809291908181526020016000905b82821015610e4d57838290600052602060002090600502016040518060a0016040529081600082018054610cc0906129b3565b80601f0160208091040260200160405190810160405280929190818152602001828054610cec906129b3565b8015610d395780601f10610d0e57610100808354040283529160200191610d39565b820191906000526020600020905b815481529060010190602001808311610d1c57829003601f168201915b505050505081526020016001820160009054906101000a900473ffffffffffffffffffffffffffffffffffffffff1673ffffffffffffffffffffffffffffffffffffffff1673ffffffffffffffffffffffffffffffffffffffff16815260200160028201548152602001600382018054610db2906129b3565b80601f0160208091040260200160405190810160405280929190818152602001828054610dde906129b3565b8015610e2b5780601f10610e0057610100808354040283529160200191610e2b565b820191906000526020600020905b815481529060010190602001808311610e0e57829003601f168201915b5050505050815260200160048201548152505081526020019060010190610c8d565b50505050905090565b600033905060006040518060400160405280601281526020017f537461727420537570706c7920436861696e000000000000000000000000000081525090506040518061010001604052808a81526020018373ffffffffffffffffffffffffffffffffffffffff1681526020018981526020018881526020018781526020018581526020018481526020014281525060036000820151816000019081610efc9190612b90565b5060208201518160010160006101000a81548173ffffffffffffffffffffffffffffffffffffffff021916908373ffffffffffffffffffffffffffffffffffffffff1602179055506040820151816002019081610f599190612b90565b506060820151816003019081610f6f9190612b90565b506080820151816004015560a0820151816005019081610f8f9190612b90565b5060c0820151816006019081610fa59190612b90565b5060e08201518160070155905050601160008054815260200190815260200160002060039080600181540180825580915050600190039060005260206000209060080201600090919091909150600082018160000190816110069190612c78565b506001820160009054906101000a900473ffffffffffffffffffffffffffffffffffffffff168160010160006101000a81548173ffffffffffffffffffffffffffffffffffffffff021916908373ffffffffffffffffffffffffffffffffffffffff160217905550600282018160020190816110829190612c78565b50600382018160030190816110979190612c78565b5060048201548160040155600582018160050190816110b69190612c78565b50600682018160060190816110cb9190612c78565b50600782015481600701555050600260039080600181540180825580915050600190039060005260206000209060080201600090919091909150600082018160000190816111199190612c78565b506001820160009054906101000a900473ffffffffffffffffffffffffffffffffffffffff168160010160006101000a81548173ffffffffffffffffffffffffffffffffffffffff021916908373ffffffffffffffffffffffffffffffffffffffff160217905550600282018160020190816111959190612c78565b50600382018160030190816111aa9190612c78565b5060048201548160040155600582018160050190816111c99190612c78565b50600682018160060190816111de9190612c78565b506007820154816007015550506040518060a001604052808a81526020018373ffffffffffffffffffffffffffffffffffffffff16815260200186815260200182815260200142815250600c600082015181600001908161123f9190612b90565b5060208201518160010160006101000a81548173ffffffffffffffffffffffffffffffffffffffff021916908373ffffffffffffffffffffffffffffffffffffffff1602179055506040820151816002015560608201518160030190816112a69190612b90565b5060808201518160040155905050601260006001548152602001908152602001600020600c9080600181540180825580915050600190039060005260206000209060050201600090919091909150600082018160000190816113089190612c78565b506001820160009054906101000a900473ffffffffffffffffffffffffffffffffffffffff168160010160006101000a81548173ffffffffffffffffffffffffffffffffffffffff021916908373ffffffffffffffffffffffffffffffffffffffff160217905550600282015481600201556003820181600301908161138e9190612c78565b50600482015481600401555050600b600c9080600181540180825580915050600190039060005260206000209060050201600090919091909150600082018160000190816113dc9190612c78565b506001820160009054906101000a900473ffffffffffffffffffffffffffffffffffffffff168160010160006101000a81548173ffffffffffffffffffffffffffffffffffffffff021916908373ffffffffffffffffffffffffffffffffffffffff16021790555060028201548160020155600382018160030190816114629190612c78565b5060048201548160040155505060008081548092919061148190612d8f565b91905055506001600081548092919061149990612d8f565b9190505550505050505050505050565b601160205281600052604060002081815481106114c557600080fd5b9060005260206000209060080201600091509150508060000180546114e9906129b3565b80601f0160208091040260200160405190810160405280929190818152602001828054611515906129b3565b80156115625780601f1061153757610100808354040283529160200191611562565b820191906000526020600020905b81548152906001019060200180831161154557829003601f168201915b5050505050908060010160009054906101000a900473ffffffffffffffffffffffffffffffffffffffff169080600201805461159d906129b3565b80601f01602080910402602001604051908101604052809291908181526020018280546115c9906129b3565b80156116165780601f106115eb57610100808354040283529160200191611616565b820191906000526020600020905b8154815290600101906020018083116115f957829003601f168201915b50505050509080600301805461162b906129b3565b80601f0160208091040260200160405190810160405280929190818152602001828054611657906129b3565b80156116a45780601f10611679576101008083540402835291602001916116a4565b820191906000526020600020905b81548152906001019060200180831161168757829003601f168201915b5050505050908060040154908060050180546116bf906129b3565b80601f01602080910402602001604051908101604052809291908181526020018280546116eb906129b3565b80156117385780601f1061170d57610100808354040283529160200191611738565b820191906000526020600020905b81548152906001019060200180831161171b57829003601f168201915b50505050509080600601805461174d906129b3565b80601f0160208091040260200160405190810160405280929190818152602001828054611779906129b3565b80156117c65780601f1061179b576101008083540402835291602001916117c6565b820191906000526020600020905b8154815290600101906020018083116117a957829003601f168201915b5050505050908060070154905088565b606060116000838152602001908152602001600020805480602002602001604051908101604052809291908181526020016000905b82821015611b8257838290600052602060002090600802016040518061010001604052908160008201805461183f906129b3565b80601f016020809104026020016040519081016040528092919081815260200182805461186b906129b3565b80156118b85780601f1061188d576101008083540402835291602001916118b8565b820191906000526020600020905b81548152906001019060200180831161189b57829003601f168201915b505050505081526020016001820160009054906101000a900473ffffffffffffffffffffffffffffffffffffffff1673ffffffffffffffffffffffffffffffffffffffff1673ffffffffffffffffffffffffffffffffffffffff168152602001600282018054611927906129b3565b80601f0160208091040260200160405190810160405280929190818152602001828054611953906129b3565b80156119a05780601f10611975576101008083540402835291602001916119a0565b820191906000526020600020905b81548152906001019060200180831161198357829003601f168201915b505050505081526020016003820180546119b9906129b3565b80601f01602080910402602001604051908101604052809291908181526020018280546119e5906129b3565b8015611a325780601f10611a0757610100808354040283529160200191611a32565b820191906000526020600020905b815481529060010190602001808311611a1557829003601f168201915b5050505050815260200160048201548152602001600582018054611a55906129b3565b80601f0160208091040260200160405190810160405280929190818152602001828054611a81906129b3565b8015611ace5780601f10611aa357610100808354040283529160200191611ace565b820191906000526020600020905b815481529060010190602001808311611ab157829003601f168201915b50505050508152602001600682018054611ae7906129b3565b80601f0160208091040260200160405190810160405280929190818152602001828054611b13906129b3565b8015611b605780601f10611b3557610100808354040283529160200191611b60565b820191906000526020600020905b815481529060010190602001808311611b4357829003601f168201915b505050505081526020016007820154815250508152602001906001019061180b565b505050509050919050565b60126020528160005260406000208181548110611ba957600080fd5b906000526020600020906005020160009150915050806000018054611bcd906129b3565b80601f0160208091040260200160405190810160405280929190818152602001828054611bf9906129b3565b8015611c465780601f10611c1b57610100808354040283529160200191611c46565b820191906000526020600020905b815481529060010190602001808311611c2957829003601f168201915b5050505050908060010160009054906101000a900473ffffffffffffffffffffffffffffffffffffffff1690806002015490806003018054611c87906129b3565b80601f0160208091040260200160405190810160405280929190818152602001828054611cb3906129b3565b8015611d005780601f10611cd557610100808354040283529160200191611d00565b820191906000526020600020905b815481529060010190602001808311611ce357829003601f168201915b5050505050908060040154905085565b60028181548110611d2057600080fd5b9060005260206000209060080201600091509050806000018054611d43906129b3565b80601f0160208091040260200160405190810160405280929190818152602001828054611d6f906129b3565b8015611dbc5780601f10611d9157610100808354040283529160200191611dbc565b820191906000526020600020905b815481529060010190602001808311611d9f57829003601f168201915b5050505050908060010160009054906101000a900473ffffffffffffffffffffffffffffffffffffffff1690806002018054611df7906129b3565b80601f0160208091040260200160405190810160405280929190818152602001828054611e23906129b3565b8015611e705780601f10611e4557610100808354040283529160200191611e70565b820191906000526020600020905b815481529060010190602001808311611e5357829003601f168201915b505050505090806003018054611e85906129b3565b80601f0160208091040260200160405190810160405280929190818152602001828054611eb1906129b3565b8015611efe5780601f10611ed357610100808354040283529160200191611efe565b820191906000526020600020905b815481529060010190602001808311611ee157829003601f168201915b505050505090806004015490806005018054611f19906129b3565b80601f0160208091040260200160405190810160405280929190818152602001828054611f45906129b3565b8015611f925780601f10611f6757610100808354040283529160200191611f92565b820191906000526020600020905b815481529060010190602001808311611f7557829003601f168201915b505050505090806006018054611fa7906129b3565b80601f0160208091040260200160405190810160405280929190818152602001828054611fd3906129b3565b80156120205780601f10611ff557610100808354040283529160200191612020565b820191906000526020600020905b81548152906001019060200180831161200357829003601f168201915b5050505050908060070154905088565b6000604051905090565b600080fd5b600080fd5b6000819050919050565b61205781612044565b811461206257600080fd5b50565b6000813590506120748161204e565b92915050565b6000602082840312156120905761208f61203a565b5b600061209e84828501612065565b91505092915050565b600081519050919050565b600082825260208201905092915050565b60005b838110156120e15780820151818401526020810190506120c6565b60008484015250505050565b6000601f19601f8301169050919050565b6000612109826120a7565b61211381856120b2565b93506121238185602086016120c3565b61212c816120ed565b840191505092915050565b600073ffffffffffffffffffffffffffffffffffffffff82169050919050565b600061216282612137565b9050919050565b61217281612157565b82525050565b6000819050919050565b61218b81612178565b82525050565b61219a81612044565b82525050565b600060a08201905081810360008301526121ba81886120fe565b90506121c96020830187612169565b6121d66040830186612182565b81810360608301526121e881856120fe565b90506121f76080830184612191565b9695505050505050565b600081519050919050565b600082825260208201905092915050565b6000819050602082019050919050565b600082825260208201905092915050565b6000612249826120a7565b612253818561222d565b93506122638185602086016120c3565b61226c816120ed565b840191505092915050565b61228081612157565b82525050565b61228f81612178565b82525050565b61229e81612044565b82525050565b600060a08301600083015184820360008601526122c1828261223e565b91505060208301516122d66020860182612277565b5060408301516122e96040860182612286565b5060608301518482036060860152612301828261223e565b91505060808301516123166080860182612295565b508091505092915050565b600061232d83836122a4565b905092915050565b6000602082019050919050565b600061234d82612201565b612357818561220c565b9350836020820285016123698561221d565b8060005b858110156123a557848403895281516123868582612321565b945061239183612335565b925060208a0199505060018101905061236d565b50829750879550505050505092915050565b600060208201905081810360008301526123d18184612342565b905092915050565b600081519050919050565b600082825260208201905092915050565b6000819050602082019050919050565b6000610100830160008301518482036000860152612423828261223e565b91505060208301516124386020860182612277565b5060408301518482036040860152612450828261223e565b9150506060830151848203606086015261246a828261223e565b915050608083015161247f6080860182612286565b5060a083015184820360a0860152612497828261223e565b91505060c083015184820360c08601526124b1828261223e565b91505060e08301516124c660e0860182612295565b508091505092915050565b60006124dd8383612405565b905092915050565b6000602082019050919050565b60006124fd826123d9565b61250781856123e4565b935083602082028501612519856123f5565b8060005b85811015612555578484038952815161253685826124d1565b9450612541836124e5565b925060208a0199505060018101905061251d565b50829750879550505050505092915050565b6000602082019050818103600083015261258181846124f2565b905092915050565b600080fd5b600080fd5b7f4e487b7100000000000000000000000000000000000000000000000000000000600052604160045260246000fd5b6125cb826120ed565b810181811067ffffffffffffffff821117156125ea576125e9612593565b5b80604052505050565b60006125fd612030565b905061260982826125c2565b919050565b600067ffffffffffffffff82111561262957612628612593565b5b612632826120ed565b9050602081019050919050565b82818337600083830152505050565b600061266161265c8461260e565b6125f3565b90508281526020810184848401111561267d5761267c61258e565b5b61268884828561263f565b509392505050565b600082601f8301126126a5576126a4612589565b5b81356126b584826020860161264e565b91505092915050565b6126c781612178565b81146126d257600080fd5b50565b6000813590506126e4816126be565b92915050565b6000806000606084860312156127035761270261203a565b5b600084013567ffffffffffffffff8111156127215761272061203f565b5b61272d86828701612690565b935050602061273e868287016126d5565b925050604084013567ffffffffffffffff81111561275f5761275e61203f565b5b61276b86828701612690565b9150509250925092565b600080600080600080600060e0888a0312156127945761279361203a565b5b600088013567ffffffffffffffff8111156127b2576127b161203f565b5b6127be8a828b01612690565b975050602088013567ffffffffffffffff8111156127df576127de61203f565b5b6127eb8a828b01612690565b965050604088013567ffffffffffffffff81111561280c5761280b61203f565b5b6128188a828b01612690565b95505060606128298a828b016126d5565b945050608061283a8a828b016126d5565b93505060a088013567ffffffffffffffff81111561285b5761285a61203f565b5b6128678a828b01612690565b92505060c088013567ffffffffffffffff8111156128885761288761203f565b5b6128948a828b01612690565b91505092959891949750929550565b600080604083850312156128ba576128b961203a565b5b60006128c885828601612065565b92505060206128d985828601612065565b9150509250929050565b60006101008201905081810360008301526128fe818b6120fe565b905061290d602083018a612169565b818103604083015261291f81896120fe565b9050818103606083015261293381886120fe565b90506129426080830187612182565b81810360a083015261295481866120fe565b905081810360c083015261296881856120fe565b905061297760e0830184612191565b9998505050505050505050565b7f4e487b7100000000000000000000000000000000000000000000000000000000600052602260045260246000fd5b600060028204905060018216806129cb57607f821691505b6020821081036129de576129dd612984565b5b50919050565b60008190508160005260206000209050919050565b60006020601f8301049050919050565b600082821b905092915050565b600060088302612a467fffffffffffffffffffffffffffffffffffffffffffffffffffffffffffffffff82612a09565b612a508683612a09565b95508019841693508086168417925050509392505050565b6000819050919050565b6000612a8d612a88612a8384612044565b612a68565b612044565b9050919050565b6000819050919050565b612aa783612a72565b612abb612ab382612a94565b848454612a16565b825550505050565b600090565b612ad0612ac3565b612adb818484612a9e565b505050565b5b81811015612aff57612af4600082612ac8565b600181019050612ae1565b5050565b601f821115612b4457612b15816129e4565b612b1e846129f9565b81016020851015612b2d578190505b612b41612b39856129f9565b830182612ae0565b50505b505050565b600082821c905092915050565b6000612b6760001984600802612b49565b1980831691505092915050565b6000612b808383612b56565b9150826002028217905092915050565b612b99826120a7565b67ffffffffffffffff811115612bb257612bb1612593565b5b612bbc82546129b3565b612bc7828285612b03565b600060209050601f831160018114612bfa5760008415612be8578287015190505b612bf28582612b74565b865550612c5a565b601f198416612c08866129e4565b60005b82811015612c3057848901518255600182019150602085019450602081019050612c0b565b86831015612c4d5784890151612c49601f891682612b56565b8355505b6001600288020188555050505b505050505050565b600081549050612c71816129b3565b9050919050565b818103612c86575050612d5e565b612c8f82612c62565b67ffffffffffffffff811115612ca857612ca7612593565b5b612cb282546129b3565b612cbd828285612b03565b6000601f831160018114612cec5760008415612cda578287015490505b612ce48582612b74565b865550612d57565b601f198416612cfa876129e4565b9650612d05866129e4565b60005b82811015612d2d57848901548255600182019150600185019450602081019050612d08565b86831015612d4a5784890154612d46601f891682612b56565b8355505b6001600288020188555050505b5050505050505b565b7f4e487b7100000000000000000000000000000000000000000000000000000000600052601160045260246000fd5b6000612d9a82612044565b91507fffffffffffffffffffffffffffffffffffffffffffffffffffffffffffffffff8203612dcc57612dcb612d60565b5b60018201905091905056fea264697066735822122061a547b4d4bdd6a2be87fd327af586d4120841330f4b71511d9bf0d3d304037964736f6c63430008110033",
  "immutableReferences": {},
  "source": "// SPDX-License-Identifier: GPL-3.0\r\npragma solidity >= 0.4.17;\r\n\r\ncontract SupplyChain{\r\n\r\n    uint256 product_id=0;\r\n    uint256 product_StatID=0;\r\n\r\n    struct Product{\r\n        string pid;\r\n        address staionAddress;\r\n        string name;\r\n        string lot;\r\n        int value;\r\n        string origin;\r\n        string destination;\r\n        uint256 timestamp;\r\n\r\n    }\r\n\r\n    struct Status{\r\n        string pid;\r\n        address staion;\r\n        int temperature;\r\n        string details;\r\n        uint256 timestamp;\r\n\r\n    }\r\n\r\n    Product[] public products_list;\r\n    Product private productInfo;\r\n    Status[] public productStatus;\r\n    Status private statusInfo;\r\n    \r\n    mapping(uint256 => Product[]) public products;\r\n    mapping(uint256 => Status[]) public product_Status;\r\n\r\n    function addProduct(\r\n        string memory pid,\r\n        string memory name,\r\n        string memory lot,\r\n        int value,\r\n        int tem,\r\n        string memory origin,\r\n        string memory destination) public payable{\r\n        address from = msg.sender;\r\n        string memory detail = \"Start Supply Chain\";\r\n        productInfo= Product(pid,from,name,lot,value,origin,destination,block.timestamp);\r\n        products[product_id].push(productInfo);\r\n        products_list.push(productInfo);\r\n\r\n        statusInfo= Status(pid,from,tem,detail,block.timestamp);\r\n        product_Status[product_StatID].push(statusInfo);\r\n        productStatus.push(statusInfo);\r\n\r\n        product_id++;\r\n        product_StatID++;\r\n    }\r\n\r\n    function addStatus(string memory pid,int tem,string memory dt) public payable{\r\n        address from = msg.sender;\r\n        statusInfo= Status(pid,from,tem,dt,block.timestamp);\r\n        product_Status[product_StatID].push(statusInfo);\r\n        productStatus.push(statusInfo);\r\n        product_StatID++;\r\n    }\r\n\r\n    function getProductStatus(uint256 id) public view returns(Status[] memory){\r\n\r\n    return product_Status[id];\r\n    }\r\n\r\n    function getProduct(uint256 id) public view returns(Product[] memory){\r\n\r\n    return products[id];\r\n    }\r\n\r\n    function getProductStatusList() public view returns(Status[] memory){\r\n\r\n    return productStatus ;\r\n    }\r\n\r\n    function getProductList() public view returns(Product[] memory){\r\n\r\n    return products_list ;\r\n    }\r\n\r\n\r\n\r\n}\r\n\r\n",
  "sourcePath": "C:\\Users\\pooko\\FinalProject\\contracts\\SupplyChain.sol",
  "compiler": {
    "name": "solc",
    "version": "0.8.17+commit.8df45f5f.Emscripten.clang"
  },
  "schemaVersion": "3.4.12",
  "updatedAt": "2023-02-21T07:00:09.539Z",
  "networkType": "ethereum",
  "devdoc": {
    "kind": "dev",
    "methods": {},
    "version": 1
  },
  "userdoc": {
    "kind": "user",
    "methods": {},
    "version": 1
  }
}